:020000040800F2
:10000000603C00246D030008F9640008595D000895
:10001000F564000893060008E5860008000000006B
:100020000000000000000000000000003B6F00081E
:10003000C106000800000000556C00083D6F000874
:100040008703000887030008870300088703000868
:100050008703000887030008870300088703000858
:100060008703000887030008870300088703000848
:100070008703000887030008870300088703000838
:10008000870300088703000887030008C9060008E3
:10009000E9060008D9060008F906000887030008E9
:1000A00087030008DD700008870300088703000845
:1000B00087030008870300088703000887030008F8
:1000C00087030008870300088703000887030008E8
:1000D00087030008B5860008C5860008D586000895
:1000E000870300088703000800000000870300085A
:1000F00087030008870300088703000887030008B8
:1001000087030008870300088703000887030008A7
:100110008703000887030008ED700008FD700008E1
:100120008703000887030008870300088703000887
:100130008703000887030008870300088703000877
:1001400000000000000000000000000000000000AF
:100150008703000887030008870300088703000857
:100160008703000887030008870300088703000847
:1001700087030008870300088703000800000000C9
:100180008703000887030008870300088703000827
:100190008703000887030008870300088703000817
:1001A0008703000887030008870300080000000099
:1001B00087030008870300088703000887030008F7
:1001C000870300088703000800000000000000000B
:1001D000000000000000000087030008000000008D
:1001E000000000000000000000000000000000000F
:1001F00000000000000000008703000887030008DB
:100200008703000887030008000000008703000838
:100210008703000887030008870300088703000896
:1002200087030008000000008703000800000000AA
:100230008703000887030008000000008703000808
:100240008703000887030008870300088703000866
:100250008703000887030008870300088703000856
:100260008703000887030008870300088703000846
:1002700087030008870300088703000800000000C8
:100280008703000887030008870300088703000826
:10029000000000008703000887030008000000003A
:1002A0000000000087030008870300088703000898
:1002B000A5860008870300088703000809070008CF
:1002C00019070008870300088703000800F002F8F8
:1002D00000F03CF80AA090E8000C82448344AAF1A4
:1002E0000107DA4501D100F031F8AFF2090EBAE8A2
:1002F0000F0013F0010F18BFFB1A43F0010318475A
:1003000090A10000B0A10000103A24BF78C878C1C5
:10031000FAD8520724BF30C830C144BF04680C600B
:10032000704700000023002400250026103A28BF53
:1003300078C1FBD8520728BF30C148BF0B60704757
:100340001FB50AF055F81FBD10B510BD00F068F9D3
:100350001146FFF7F5FF08F0E5FC00F086F903B45D
:10036000FFF7F2FF03BC00F08DF900000948804759
:1003700009480047FEE7FEE7FEE7FEE7FEE7FEE787
:10038000FEE7FEE7FEE7FEE704480549054A064B9F
:1003900070470000FD6F0008CD02000860360024A1
:1003A000603C0024603800246038002453EA020CCA
:1003B00000F069802DE9F04B4FF00006002B1FBFC5
:1003C000B3FA83F503FA05F424FA05F65E4012BF8A
:1003D0001643B2FA82F502FA05F4C5F120051EBFF4
:1003E00022FA05FC44EA0C04203556EA044C4FEA94
:1003F000144418BF641C4FF000084FF000099042ED
:1004000071EB030C39D3002919BFB1FA81F701FA56
:1004100007F6B0FA80F700FA07F6C7F120071EBF0B
:1004200020FA07FC46EA0C062037B6FBF4FCA7EBE3
:100430000507103F07F01F0BCBF120060CFA0BFB52
:100440002CFA06F644BFB3460026202FA4BF5E4612
:100450004FF0000B5BEA060C08BF4FF0010B19EBE5
:100460000B09ABFB027C48EB0608C01B06FB02CC69
:100470000BFB03CC71EB0C01C1E70B460246414676
:100480004846BDE8F08B13B54FF000004FF0000177
:10049000AFF30080BDE81C407047032A40F2308073
:1004A00010F0030C00F0158011F8013BBCF1020FB5
:1004B000624498BF11F801CB00F8013B38BF11F836
:1004C000013BA2F1040298BF00F801CB38BF00F84D
:1004D000013B11F0030300F02580083AC0F00880CA
:1004E00051F8043B083A51F804CBA0E80810F5E7AE
:1004F000121D5CBF51F8043B40F8043BAFF3008091
:10050000D20724BF11F8013B11F801CB48BF11F805
:10051000012B24BF00F8013B00F801CB48BF00F8D5
:10052000012B704710B5203AC0F00B80B1E818508D
:10053000203AA0E81850B1E81850A0E81850BFF4CD
:10054000F5AF5FEA027C24BFB1E81850A0E818506C
:1005500044BF18C918C0BDE810405FEA827C24BFC0
:1005600051F8043B40F8043B08BF7047D20728BF4E
:1005700031F8023B48BF11F8012B28BF20F8023B9D
:1005800048BF00F8012B70474FF000020429C0F06B
:10059000128010F0030C00F01B80CCF1040CBCF1B5
:1005A000020F18BF00F8012BA8BF20F8022BA1EB07
:1005B0000C0100F00DB85FEAC17C24BF00F8012BEC
:1005C00000F8012B48BF00F8012B70474FF00002E4
:1005D00000B5134694469646203922BFA0E80C5039
:1005E000A0E80C50B1F12001BFF4F7AF090728BF14
:1005F000A0E80C5048BF0CC05DF804EB890028BF90
:1006000040F8042B08BF704748BF20F8022B11F0B8
:10061000804F18BF00F8012B704770477047704734
:10062000754600F02BF8AE4605006946534620F0AB
:100630000700854618B020B5FFF7A6FEBDE82040AC
:100640004FF000064FF000074FF000084FF0000B8E
:1006500021F00701AC46ACE8C009ACE8C009ACE841
:10066000C009ACE8C0098D46704710B50446AFF329
:1006700000802046BDE81040FFF771BE004870477B
:100680000036002401491820ABBEFEE72600020018
:10069000704700BFFEE710B58CB004462C2101A8BE
:1006A000FFF794FF01A9204600F060FF069828B1EB
:1006B0002068806920F00100216888610CB010BDBD
:1006C000704772B600BFFEE710B5024801F070F83F
:1006D00010BD00006C00002410B5024801F068F85D
:1006E00010BD00006C00002410B5024801F060F855
:1006F00010BD00000C01002410B5024801F058F8AC
:1007000010BD00000C01002410B5024801F050F8A3
:1007100010BD0000AC01002410B5024801F048F8FB
:1007200010BD0000AC01002410B501464A6B0868FA
:10073000D0F884004FF6FC74A04340EA82000C68B5
:10074000C4F884000868D0F8840020F47F04088F7F
:1007500044EA00400C68C4F88400886B02440868CE
:10076000D0F888004FF6FC74A04340EA82000C6881
:10077000C4F888000868D0F8880020F4FE04888F48
:1007800044EA00400C68C4F88800C86B02EB4002E1
:100790000868D0F8A0004FF6FC74A04340EA82003D
:1007A0000C68C4F8A0000868D0F8A00020F4FE048B
:1007B0004020405A44EA00400C68C4F8A000D1E947
:1007C000104004FB00220868D0F8B0004FF6FC741B
:1007D000A04340EA82000C68C4F8B0000868D0F872
:1007E000B00020F4FE04B1F8480044EA00400C6870
:1007F000C4F8B000D1E9124004FB00220868D0F828
:10080000AC004FF6FC74A04340EA82000C68C4F8C8
:10081000AC00D1E9144004FB00220868D0F8F000D5
:100820004FF6FC74A04340EA82000C68C4F8F00064
:100830000868D0F8F00020F47C14B1F8580044EABD
:1008400000400C68C4F8F000886D02EB40020868B4
:10085000D0F8C0004FF6FC74A04340EA82000C6858
:10086000C4F8C0000868D0F8C00020F47C14B1F8C7
:100870005C0044EA00400C68C4F8C0000868D0F886
:10088000C00020F07C5491F8600044EA00600C68DD
:10089000C4F8C0002A4C486B04EB8000C866CC6EDC
:1008A000886B04EB80040C670C6FC86B04EBC0040E
:1008B0004C67D1E9100460434C6F04EB80048C67F3
:1008C000D1E9120460438C6F04EB8004CC67D1E95A
:1008D00014046043CC6F04EB8004802044504458DF
:1008E000886D04EBC004842044508C6EC86D604356
:1008F0008424645804EB8004882044508C6E086E75
:1009000060438824645804EB80049020445040588D
:100910000C4CA04209D99831486840F0200048604A
:10092000032001F89809012010BDCB6E02E00020E1
:1009300018601B1D902040589842F8D80020F3E71B
:1009400000AC0040FCD300402DE9F04105461446C0
:100950001E46D1F804C0BCF1000F0AD1D1F810C076
:10096000D1F808804CEA080CB1F800804CEA8843C2
:100970000BE0D1F810C04CF0804CD1F808804CEA64
:10098000080CD1F800804CEA080391F82080D1F8D7
:100990001CC04CEA086CD1F818804CEA080CD1F85D
:1009A00014804CEA080CB1F80C804CEA0847D5F8E2
:1009B00068C00CFB06FCD5F8848008EB8C02136041
:1009C000121D1760121D002019E000F1030C14F82D
:1009D0000CC04FEA0C6800F1020C14F80CC048EA95
:1009E0000C4800F1010C14F80CC048EA0C2C14F867
:1009F00000804CEA080CC2F800C0121D001DDFF890
:100A00001480D1F80CC018F80CC08445DDD8BDE8BE
:100A1000F0810000FCA300082DE9F041044601F03C
:100A2000B1FC804614B90120BDE8F08194F835008E
:100A3000022808D08020606500BF002084F83400C0
:100A400000BF0120F0E7FE492068884249D0FC49F8
:100A500018312068884244D0F949303120688842F2
:100A60003FD0F7494831206888423AD0F449603194
:100A70002068884235D0F24978312068884230D0E9
:100A8000EF499031206888422BD0ED49A831206889
:100A9000884226D0EB492068884222D0E9491831A3
:100AA000206888421DD0E74930312068884218D03C
:100AB000E44948312068884213D0E2496031206817
:100AC00088420ED0DF4978312068884209D0DD495C
:100AD00090312068884204D0DA49A83120688842E1
:100AE00001D1012000E0002068B12068006820F0FA
:100AF0001E00216808602068406920F0800021689D
:100B00004861256806E02068006820F00E00216832
:100B100008602568CA492068884270D0C8491831E1
:100B2000206888426BD0C64930312068884266D040
:100B3000C34948312068884261D0C149603120688A
:100B400088425CD0BE4978312068884257D0BC4981
:100B500090312068884252D0B949A8312068884233
:100B60004DD0B8492068884249D0B649183120682C
:100B7000884244D0B3493031206888423FD0B149DF
:100B80004831206888423AD0AE49603120688842B6
:100B900035D0AC4978312068884230D0A9499031AD
:100BA000206888422BD0A749A8312068884226D0E7
:100BB000A5492068884222D0A34914312068884280
:100BC0001DD0A14928312068884218D09E493C3167
:100BD0002068884213D09C495031206888420ED04A
:100BE000994964312068884209D097497831206852
:100BF000884204D094498C312068884201D1012078
:100C000000E0002028B1206E006820F48070216E82
:100C100008608B492068884249D08949183120688A
:100C2000884244D086493031206888423FD0844988
:100C30004831206888423AD0814960312068884232
:100C400035D07F4978312068884230D07C49903156
:100C5000206888422BD07A49A8312068884226D063
:100C600078492068884222D0764918312068884225
:100C70001DD0744930312068884218D071494831FC
:100C80002068884213D06F496031206888420ED0B6
:100C90006C4978312068884209D06A4990312068CF
:100CA000884204D06749A8312068884206D120686C
:100CB000006820F001002168086005E020680068F5
:100CC00020F001002168086011E001F05BFBA0EB5F
:100CD000080005280BD920206065032084F8350022
:100CE00000BF002084F8340000BF01209CE6286883
:100CF00000F001000028E8D151492068884249D01D
:100D00004F4918312068884244D04D49303120681D
:100D100088423FD04A494831206888423AD0484901
:100D200060312068884235D0454978312068884252
:100D300030D043499031206888422BD04049A831B7
:100D40002068884226D03F492068884222D03D4909
:100D50001831206888421DD03A49303120688842D5
:100D600018D0384948312068884213D0354960315D
:100D7000206888420ED0334978312068884209D0F3
:100D8000304990312068884204D02E49A83120682B
:100D9000884201D1012000E0002040B1A66D94F806
:100DA0005C0000F01F013F208840B06007E0A76DA5
:100DB00094F85C0000F01F01012088407860204911
:100DC0002068884276D01E4918312068884271D048
:100DD0001B493031206888426CD01949483120685D
:100DE000884267D0164960312068884262D0144931
:100DF0007831206888425DD011499031206888425E
:100E000058D00F49A8312068884253D00D49206836
:100E100088424FD00B491831206888424AD009498E
:100E200030312068884245D00649483120688842E0
:100E300040D004496031206888423BD0014905E038
:100E40001000024010040240085402587831206813
:100E500088422FD02549206888422BD02349183159
:100E60002068884226D022492068884222D0204922
:100E70001431206888421DD01D49283120688842DD
:100E800018D01B493C312068884213D01849503192
:100E9000206888420ED0164964312068884209D003
:100EA000134978312068884204D011498C31206878
:100EB000884201D1012000E0002068B1D4E9191076
:100EC0004860E06E40B1E06E006820F48070E16E32
:100ED0000860D4E91C104860012084F8350000BF88
:100EE000002084F8340000BF00BF9DE5A00402404C
:100EF0000854025870B504460CB9012070BD94F82E
:100F00003500022803D0802060650120F6E7DC4927
:100F10002068884249D0DA4918312068884244D094
:100F2000D7493031206888423FD0D54948312068C0
:100F300088423AD0D24960312068884235D0D049C1
:100F400078312068884230D0CD499031206888427D
:100F50002BD0CB49A8312068884226D0C9492068C7
:100F6000884222D0C7491831206888421DD0C5491F
:100F700030312068884218D0C24948312068884200
:100F800013D0C0496031206888420ED0BD49783105
:100F90002068884209D0BB4990312068884204D03B
:100FA000B849A8312068884201D1012000E0002022
:100FB000F0B3042084F83500B149206888424BD052
:100FC000AF4918312068884246D0AD493031206899
:100FD000884241D0AA494831206888423CD0A8497B
:100FE00060312068884237D0A5497831206888422E
:100FF00032D0A3499031206888422DD0A049A83131
:101000002068884228D09F492068884224D09D4982
:101010001831206888421FD09A49303120688842B0
:101020001AD0984948312068884215D0954900E087
:1010300020E06031206888420ED0924978312068E3
:10104000884209D08F4990312068884204D08D4968
:10105000A8312068884206D12068006820F001008D
:101060002168086009E12068006820F0010021681B
:10107000086002E12068006820F00E002168086026
:101080007F492068884249D07D49183120688842CC
:1010900044D07B493031206888423FD0784948317C
:1010A000206888423AD0764960312068884235D03D
:1010B000734978312068884230D071499031206876
:1010C00088422BD06E49A8312068884226D06D49CD
:1010D0002068884222D06B491831206888421DD090
:1010E000684930312068884218D066494831206804
:1010F000884213D063496031206888420ED061492C
:1011000078312068884209D05E4990312068884251
:1011100004D05C49A8312068884206D12068006864
:1011200020F001002168086005E02068006820F0D8
:1011300001002168086052492068884270D05049F7
:101140001831206888426BD04D4930312068884280
:1011500066D04B4948312068884261D048496031A7
:10116000206888425CD0464978312068884257D050
:10117000434990312068884252D04149A8312068C3
:1011800088424DD03F492068884249D03D491831B6
:101190002068884244D03B493031206888423FD0A3
:1011A00038494831206888423AD036496031206851
:1011B000884235D0334978312068884230D031496F
:1011C0009031206888422BD02E49A831206888426F
:1011D00026D02D492068884222D02B49143120681E
:1011E00088421DD0284928312068884218D02649D5
:1011F0003C312068884213D023495031206888420E
:101200000ED0214964312068884209D01E497831C6
:101210002068884204D01C498C312068884201D162
:10122000012000E00020D8B1206E006820F480701A
:10123000216E0860A56D94F85C0000F01F0101208C
:1012400088406860D4E919104860E06E40B1E06EF3
:10125000006820F48070E16E0860D4E91C104860DA
:10126000012084F8350000BF002084F8340000BF5E
:10127000206D10B12046216D884700203EE6000019
:1012800010000240100402400854025870B5044691
:1012900001F078F806462546681C10B1044800782D
:1012A000054400BF01F06EF8801BA842FAD370BD60
:1012B0000C00002430B5034693F89840012C01D06F
:1012C000022C3ED11868806D084030B91868C06D96
:1012D00040F001001D68E8650EE01868806D084068
:1012E000884206D11868C06D40F002001D68E865AC
:1012F00002E003201D68E86501F4007030B1186851
:10130000D0F8E00010431D68C5F8E00001F48060EB
:1013100030B11868D0F8E40010431D68C5F8E40047
:1013200000BF1868406D0B4D0D4028431D6868656F
:101330000948006840EA9170074D286000BF00200E
:1013400030BDD3F89C0040F00200C3F89C0001209F
:10135000F6E70000FFFFCF3F14A800402DE9F04161
:1013600004460E461746706800B900E000BF94F8C6
:101370009800022832D12068D0F8C00000F07C50DC
:1013800040B9D4F89C0040F02000C4F89C00012033
:10139000BDE8F0812068D0F8C40000F4001038B136
:1013A000D4F89C0040F40070C4F89C000120EFE7E2
:1013B0002068D0F8C400C0F304452B463A463146B5
:1013C0002046FFF7C1FA0120A8402168C1F8D000EB
:1013D0000120A840C4F894000020D9E7D4F89C006C
:1013E00040F00800C4F89C000120D1E7704710B518
:1013F000034601B900E000BF93F89800012824D10A
:1014000051B91868D0F8F00020F07C5040EA026032
:101410001C68C4F8F00016E001290AD11868D0F859
:10142000A00020F0FE4040EA02601C68C4F8A00062
:1014300009E01868D0F8B00020F0FE4040EA0260F1
:101440001C68C4F8B000002010BDD3F89C0040F028
:101450000400C3F89C000120F6E7F0B5024692F8BC
:101460009860012E01D0022E43D1C868072800D110
:1014700000BF086818BBC868072800D000BFC8684C
:1014800007280BD1088A4FF0605747EA0040CF6920
:1014900040EA07208F6940EA07040AE0087A8007DB
:1014A0000F7B40EAC7600F8A40EA07404F6940EA75
:1014B0000704D76E486807EB80031C6017E0C86814
:1014C000072800D000BF0F7B086940EA4774C8684E
:1014D000072801D18D6903E00F7A486940EA8775D2
:1014E000176F486807EBC0031C601B1D1D600020C0
:1014F000F0BDD2F89C0040F00200C2F89C00012030
:10150000F6E770B50446049D94F8980001280AD1C6
:10151000080140EA820040EA430028432668C6F8F2
:101520008000002070BDD4F89C0040F00400C4F896
:101530009C000120F6E7704770B504460D46084848
:10154000844205D00748844202D00748844205D12E
:1015500005F0007010B12046FFF79DF870BD000047
:10156000AC0100240C0100246C0000240346186820
:10157000426C02F007000860C2F30220486002F0EB
:1015800018008860C2F34010C860C2F38010086180
:10159000C2F3C0104861C2F3C0208861C2F30030BA
:1015A000C861C2F340300862C2F380304862C2F3BF
:1015B00006408862002070472DE9F04304460D463E
:1015C0009C46002394F89880B8F1020F74D1402D06
:1015D00038D12068D0F8A00000F4FE0040B9D4F85B
:1015E0009C0040F02000C4F89C000120BDE8F0837E
:1015F0002068D0F8A40000F07F0038B9D4F89C002F
:1016000040F48070C4F89C000120EFE72068D0F817
:10161000A400C0F3006040B12068D0F8A0004FF0F3
:101620000109B9EBD07F00D101232068D0F8A400D4
:10163000C0F305200344606C5843D4F8749009EB60
:1016400080014BE0412D38D12068D0F8B00000F483
:10165000FE0038B9D4F89C0040F02000C4F89C008B
:101660000120C3E72068D0F8B40000F07F0038B94B
:10167000D4F89C0040F48070C4F89C000120B5E7C9
:101680002068D0F8B400C0F3006040B12068D0F802
:10169000B0004FF00109B9EBD07F00D101232068E1
:1016A000D0F8B400C0F305200344E06C5843D4F8EC
:1016B000789009EB800111E06DE0206DA84207D819
:1016C000D4F89C0040F02000C4F89C0001208DE775
:1016D000606D6843D4F87C9009EB8001086800F0E5
:1016E00080405060506820B90868C0F38A4010609C
:1016F00003E0086820F060401060086800F00050C7
:101700009060086800F000401061091D088880B2F0
:10171000D0610868C0F30340D060086800F480100E
:101720005061086800F4001090610868C0F306601A
:1017300010620868C00F5062091D0F46002603E0C2
:10174000B85D0CF80600761CDFF85C90D06819F8DC
:101750000000B042F4D8402D03D12068C0F8A83072
:1017600017E0412D03D12068C0F8B83011E0202DDA
:1017700006D20120A840D4F80090C9F8980008E0EB
:1017800005F01F09012000FA09F0D4F80090C9F80B
:101790009C0000202AE7D4F89C0040F00800C4F820
:1017A0009C00012022E70000FCA300087047000015
:1017B0002DE9F04F8DB00446EF4800688707EE48EA
:1017C000001D006807EA80772068006D00F470480B
:1017D0002068406D00EA08082068006D00F00F09DD
:1017E0002068406D00EA09092068006D00F0F00AE9
:1017F0002068406D00EA0A0A2068006D00F0715B05
:101800002068406D00EA0B0B2068006D00F06070EE
:101810000C902068406D0C9908400C902068456D34
:101820002068066DC5F3002070B1C6F3002058B1E2
:1018300000BF4FF48070216808650020CE49086021
:1018400000BF2046FFF7B2FFC5F38020C8B1C6F342
:101850008020B0B12068D0F8DC000A902068D0F871
:10186000E4000A9908400A9000BF4FF480602168A4
:1018700008650020C049086000BF20460A9900F0B2
:1018800075FC67B100BFBD48384021680865B80FD6
:10189000B949086000BF39462046FFF7A7FDB8F1F7
:1018A000000F0ED000BFB54808EA000021680865A7
:1018B0004FEA9870B049086000BF4146204600F0EA
:1018C00057FCB9F1000F0ED000BFAC4809EA000088
:1018D000216808654FEA9970A749086000BF49462A
:1018E000204600F0E3FBBAF1000F0ED000BFA34882
:1018F0000AEA0000216808654FEA9A709E4908606C
:1019000000BF5146204600F0F1FBC5F3C02070B186
:10191000C6F3C02058B100BF4FF4006021680865CD
:1019200000209549086000BF204600F022FCC5F366
:101930004020C8B1C6F34020B0B12068D0F8D8002C
:101940000B902068D0F8E0000B9908400B9000BF86
:101950004FF400702168086500208749086000BFC7
:1019600020460B9900F003FCC5F3C04070B1C6F3EC
:10197000C04058B100BF4FF4002021680865002026
:101980007D49086000BF204600F08EFBC5F3004093
:1019900070B1C6F3004058B100BF4FF480302168E9
:1019A000086500207449086000BF204600F0DDFB98
:1019B000C5F3804070B1C6F3804058B100BF4FF40A
:1019C00080202168086500206B49086000BF204620
:1019D00000F0CAFBC5F3404088B1C6F3404070B187
:1019E00000BF4FF40030216808650020624908609C
:1019F00000BFD4F89C0040F08000C4F89C000C9814
:101A000070B100BF5D490C980840216808650C98CA
:101A1000800F5949086000BF20460C99FFF78CFDE4
:101A2000BBF1000F10D000BF54480BEA0000216842
:101A300008654FEA9B705049086000BFD4F89C00CD
:101A400040EA0B00C4F89C004D49206888427DD1D3
:101A50006068806800F00300002877D06068006A42
:101A600000F00F0009906068406A099908400990E9
:101A70006068006A00F0300008906068406A089969
:101A8000084008906068006A00F4C07007906068C1
:101A9000406A0799084007906068006A00F4FC40BB
:101AA00006906068406A0699084006906068006A7F
:101AB00000F4F02005906068406A059908400590A0
:101AC0006068406A02906068006A0190099830B1CD
:101AD0000998616808622046099900F042FB08985D
:101AE00030B10898616808622046089900F03BFB15
:101AF0000298C0F38010A0B10198C0F3801080B1AB
:101B00006068C06B000C04906068C06B00F03F0020
:101B100003904020616808622046DDE9032100F05F
:101B200021FB079830B10798616808622046079941
:101B300000F016FB069840B1069861680862D4F878
:101B40009C0006990843C4F89C0000E00AE0059850
:101B500040B1059861680862D4F89C000599084373
:101B6000C4F89C00D4F89C0010B12046FFF7E3FCB9
:101B70000DB0BDE8F08F000010A80040FFFFCF3F80
:101B800000A0004070B594B004464C22B34901A8AF
:101B9000FEF7C8FC14B9012014B070BDB04920682C
:101BA000884203D1206800F580706060A068B0F5BD
:101BB000407F00D100BF206C00B100BFA06C00B11D
:101BC00000BF206D00B100BF206E00B100BFD4E99E
:101BD0001710084400B100BF94F8980028B90020FD
:101BE00084F89900204600F03DF92068806920F0D3
:101BF00010002168886100F0C5FB05460EE000F08A
:101C0000C1FB401B0A2809D99834606840F00100E4
:101C10006060032004F898090120BDE7206880690E
:101C200000F008000828EAD02068806940F0010030
:101C30002168886100F0A6FB05460EE000F0A2FBDB
:101C4000401B0A2809D99834606840F001006060A0
:101C5000032004F8980901209EE72068806900F0BD
:101C600001000028EAD02068806940F00200216865
:101C70008861207C012806D12068806920F040001E
:101C80002168886105E02068806940F04000216893
:101C90008861607C012806D12068806940F480401A
:101CA0002168886105E02068806920F4804021680F
:101CB0008861A07C012806D12068806920F48050CA
:101CC0002168886105E02068806940F480502168BF
:101CD00088612068806920F44070A1680843216809
:101CE00088612068806920F0A400216888612068EC
:101CF000006920F0100021680861E068012806D121
:101D00002068806940F004002168886120E0E06874
:101D1000F0B1E068022815D02068806940F08000AA
:101D2000216888612068006940F01000216808611E
:101D3000E06803280CD12068806940F02000216809
:101D4000886105E02068806940F020002168886192
:101D5000207E401E4106E069401E41EA0020216AC3
:101D6000491E0843A18A491E40EA01402168C86112
:101D7000A068B0F5407F0FD1A06A401EE16A491EFD
:101D800040EA0121206B401E41EA0011A08C401E58
:101D900041EA00402168C860206E38B12068D0F860
:101DA000C000616E08432168C1F8C000D4E9171073
:101DB000084460B12068D0F8C80020F0070001AAEC
:101DC000A16E52F8211008432168C1F8C800206CA8
:101DD00060B12068D0F8BC0020F0070001AA616C57
:101DE00052F8211008432168C1F8BC00A06C68B10A
:101DF0002068D0F8BC0020F0700101AAE06C52F815
:101E0000200041EA00102168C1F8BC00206D68B1D3
:101E10002068D0F8BC0020F4E06101AA606D52F89F
:101E2000200041EA00202168C1F8BC000C4920686C
:101E3000884205D16068806820F00300616888608E
:101E4000002044F8940FA06001202071943C2046AB
:101E5000FEF76AFC064630469EE600000CA4000829
:101E600000A0004010B5B6B00446142130A8FEF71B
:101E7000ADFBB82102A8FEF7A9FB83492068884280
:101E800052D14FF400410020CDE9021048031D90CB
:101E900002A800F075FF08B1FEF713FC7B4800684C
:101EA000401C7A4908600846006801280DD100BF2F
:101EB0007748006840F480707549086008460068FB
:101EC00000F48070019000BF00BF00BF70480C3864
:101ED000006840F001006E490C390860084600684F
:101EE00000F00100019000BF00BF4FF4C0503090DF
:101EF000022031900020329033900920349030A994
:101F0000644800F037F900221146132000F074FCF9
:101F1000132000F05DFC00221146152000F06CFC3F
:101F2000152000F055FCACE05B492068884252D196
:101F30004FF400410020CDE9021048031D9002A893
:101F400000F01EFF08B1FEF7BCFB50480068401CC3
:101F50004E4908600846006801280DD100BF4C4872
:101F6000006840F480704A4908600846006800F440
:101F70008070019000BF00BF00BF45480C3800686A
:101F800040F0020042490C3908600846006800F041
:101F90000200019000BF00BF4FF44050309002207B
:101FA00031900020329033900920349030A93B4882
:101FB00000F0E0F800221146142000F01DFC14206F
:101FC00000F006FC00221146162000F015FC162039
:101FD00000F0FEFB55E032492068884251D14FF4B1
:101FE00000410020CDE9021048031D9002A800F036
:101FF000C7FE08B1FEF765FB24480068401C234972
:1020000008600846006801280DD100BF204800681C
:1020100040F480701E4908600846006800F4807033
:10202000019000BF00BF00BF19480C38006840F0A5
:10203000080017490C3908600846006800F00800DD
:10204000019000BF00BF4FF440503090022031900B
:102050000020329033900520349030A9114800F0D0
:1020600089F8002211469F2000F0C6FB9F2000F057
:10207000AFFB00221146A02000F0BEFBA02000F024
:10208000A7FB36B010BD000000A0004000000024F7
:10209000EC4402580000025800A40040000402581A
:1020A00000D40040000C02587047000070B5044690
:1020B0000E4600250A48844200D10AE009488442BD
:1020C00001D1012505E00848844201D1022500E044
:1020D00070BD2946204606F073FC00BFF8E70000FB
:1020E0006C0000240C010024AC01002470B50446EF
:1020F0000E4600250A48844200D10AE0094884427D
:1021000001D1012505E00848844201D1022500E003
:1021100070BD2946204606F09FFC00BFF8E700008E
:102120006C0000240C010024AC010024014691F84D
:10213000980001280CD1022081F898000868806975
:1021400020F001000A6890610020C1F89C007047EF
:10215000D1F89C0040F00400C1F89C000120F6E793
:1021600070477047704770477047704770477047B7
:1021700070477047F8B502460B4600216D4DD2E01E
:1021800001278F401E6806EA0704002C72D01E79D2
:1021900006F00306012E04D01E7906F00306022E77
:1021A00013D190684F000326BE40B0434F00DE6855
:1021B000BE4030439060506801268E40B0431E7987
:1021C000C6F300168E40304350601E7906F00306B9
:1021D000032E09D0D0684F000326BE40B0434F0005
:1021E0009E68BE403043D0601E7906F00306022E82
:1021F00013D1CF0802F1200656F827004E07F70E3C
:102200000F26BE40B0434F07FF0E1E69BE4030434D
:10221000CF0802F1200646F8270010684F00032679
:10222000BE40B0431E7906F003064F00BE40304367
:1022300010605E6806F44036002E73D000BF3E4E3C
:10224000366846F002063C4F3E603E46366806F071
:102250000206009600BF00BF384E8F0856F82700D0
:102260008E07370F0F26BE40B043354EB24202D123
:10227000002629E056E0334EB24201D1012623E088
:10228000314EB24201D102261EE0304EB24201D19F
:10229000032619E02E4EB24201D1042614E02D4E41
:1022A000B24201D105260FE02B4EB24201D10626E3
:1022B0000AE02A4EB24201D1072605E0284EB2427A
:1022C00001D1092600E00A268F073F0FBE403043A8
:1022D0001A4E8F0846F827004FF0B0463068A043EA
:1022E0005E6806F4801606B120434FF0B0463060B9
:1022F0007068A0435E6806F4001606B120434FF0F4
:10230000B04670606868A0435E6806F4003606B1A7
:10231000204368602868A0435E6806F4803606B1F2
:1023200020432860491C1E68CE40002E7FF428AF51
:10233000F8BD000080000058F4440258080400581A
:10234000000002580004025800080258000C02580D
:10235000001002580014025800180258001C0258BD
:102360000024025810B5426921EA020302EA01047E
:1023700043EA0443836110BD0AB1816101E00B04AB
:102380008361704701480068704700000400002422
:10239000024692F8410020282DD100BF92F840005B
:1023A000012801D102207047012082F8400000BFBF
:1023B000242082F841001068006820F001001368B2
:1023C00018601068006820F4805013681860106866
:1023D00000680843136818601068006840F0010046
:1023E00013681860202082F8410000BF002082F8A6
:1023F000400000BFD7E70220D5E710B502460B46E4
:1024000092F8410020282AD100BF92F8400001280C
:1024100001D1022010BD012082F8400000BF24201D
:1024200082F841001068006820F001001468206004
:102430001068016821F4706141EA032110680160AD
:102440001068006840F0010014682060202082F8C5
:10245000410000BF002082F8400000BFDAE7022000
:10246000D8E7000010B504460CB9012010BD94F85F
:10247000410028B9002084F84000204600F05EF8B2
:10248000242084F841002068006820F001002168C1
:102490000860606820F070602168086120688068CA
:1024A00020F4004021688860E068012805D1A06818
:1024B00040F400402168886004E0A06840F40440D3
:1024C00021688860E068022806D12068406840F4EE
:1024D00000602168486005E02068406820F40060E2
:1024E00021684860206840681349084321684860B3
:1024F0002068C06820F400402168C860D4E9040165
:102500000843A16940EA01202168C860D4E90701B5
:102510000843216808602068006840F001002168D5
:10252000086000206064202084F8410000202063BF
:1025300084F8420000BF99E70080000210B5B6B0F1
:102540000446142130A8FEF741F8B82102A8FEF78E
:102550003DF81E492068884236D108210020CDE987
:102560000210229002A800F00BFC08B1FEF7A9F8B7
:1025700000BF1748006840F002001549086008468F
:10258000006800F00200019000BF00BF4FF44070EF
:1025900030901220319000203290339004203490FB
:1025A00030A90C48FFF7E6FD00BF09480830006875
:1025B00040F400100649083108600846006800F43D
:1025C0000010019000BF00BF36B010BD00540040A5
:1025D000E04402580004025803480068034909789F
:1025E0000844014908607047040000240C000024DE
:1025F00010B5032000F03EF901F036FC10490968DF
:10260000C1F303210F4A515C01F01F0120FA01F4CC
:102610000B48006800F00F001146085C00F01F0036
:1026200024FA00F008490860084804600F2000F010
:102630000FF808B1012010BD00F0B8F80020FAE74B
:102640001844025880A4000814000024100000243C
:1026500070B58AB00446102C0AD2002221461920F7
:1026600000F0CAF8192000F0B3F81948046002E03D
:1026700001200AB070BD00BF1648006840F001009C
:10268000144908600846006800F00100009000BF8F
:1026900000BF01A902A801F067FB01F0D3FB4500D0
:1026A0000D48B5FBF0F0461E0C480D49086040F29D
:1026B000E7310B48C160466000210161816002F092
:1026C00073FA18B9064802F0E5FAD2E70120D0E71C
:1026D00008000024F044025840420F00000001406E
:1026E000300700244178154A1160144908310968FF
:1026F00021F00101114A08321160121F4168116076
:10270000017B0907C27A41EA0261827A41EAC24149
:10271000427B41EA8241827B41EA4241C27B41EAFB
:102720000241427A41EA0221027A41EA42010278F8
:102730001143024A083211607047000098ED00E032
:1027400000BF00BF00BFBFF35F8F00BF00BF00BF6F
:102750000548006820F480300349086000200249E1
:10276000703108607047000024ED00E040F0010186
:102770000D4A11600C497039096841F480310A4AE8
:10278000703A116000BF00BF00BFBFF34F8F00BFA2
:1027900000BF00BF00BF00BF00BFBFF36F8F00BF0F
:1027A00000BF00BF7047000094ED00E008B500BF17
:1027B0000648006840F002000449086008460068C6
:1027C00000F00200009000BF00BF08BDF4440258B2
:1027D0000146084600280DDB00BF00BF00F01F03C4
:1027E00001229A4043099B0003F1E023C3F8002132
:1027F00000BF00BF00BF70472DE9F05F80460D4667
:10280000164605F09DFF074639462A46334601F035
:102810000700C0F1070ABAF1040F02D94FF0040A09
:1028200001E0C0F1070AD14600F1040ABAF1070F2E
:1028300002D24FF0000A01E0A0F1030AD4464FF0A3
:10284000010A0AFA09FAAAF1010A0AEA020A0AFACC
:102850000CFA4FF0010B0BFA0CFBABF1010B0BEA7E
:10286000030B4AEA0B042146404605F071FFBDE820
:10287000F09F000000BF00F00702064B19684FF6FA
:10288000FF031940044B0B4343EA0221014B19603B
:1028900000BF70470CED00E00000FA0570B504467B
:1028A00015480068C0F3800048B91348006800F07C
:1028B0000700A04201D0012070BD0020FCE70E48B7
:1028C000006820F0070020430B490860FFF75AFD1D
:1028D000054607E0FFF756FD401BB0F57A7F01D9AA
:1028E0000120E9E7044808380068C0F340300028B8
:1028F000F0D00020E0E700000C48025810B501F0CD
:1029000069FA05490968C1F30211044A515C01F0F2
:102910001F01C84010BD00002044025880A40008D8
:1029200070B50146844D2D6805F00303824D2D6876
:10293000C5F30530804D2D1D2D68C5F300147E4D67
:1029400014352D68C5F3CC0515FB04F501EE105ABE
:10295000B8EE411AF0EE410A00286FD023B1012BE6
:102960004ED0022B6BD16BE0734D283D2D68C5F323
:1029700040153DB3704D283D2D68C5F3C1066F4D20
:1029800025FA06F201EE102AF8EE411A01EE100ABD
:10299000B8EE411A81EE812A9FED691AC0EE811AC4
:1029A000654D10352D68C5F3080501EE105AB8EED7
:1029B000411A31EE811AF7EE001A31EE211A22EE99
:1029C000010A1CE001EE100AB8EE411ADFED5D1AB3
:1029D00081EE812A9FED5A1AC0EE811A564D1035AC
:1029E0002D68C5F3080501EE105AB8EE411A31EE14
:1029F000811AF7EE001A31EE211A22EE010A5BE08D
:102A000001EE100AB8EE411ADFED4F1A81EE812A6D
:102A10009FED4B1AC0EE811A474D10352D68C5F356
:102A2000080501EE105AB8EE411A31EE811AF7EEA0
:102A3000001A31EE211A22EE010A3DE077E01DE096
:102A400001EE100AB8EE411A9FED402AC2EE011ABB
:102A50009FED3B1A80EE812A374D10352D68C5F366
:102A6000080501EE105AB8EE411A32EE011AB7EE1F
:102A7000002A31EE021A21EE810A1DE001EE100A51
:102A8000B8EE411ADFED301A81EE812A9FED2C1A43
:102A9000C0EE811A284D10352D68C5F3080501EEEA
:102AA000105AB8EE411A31EE811AF7EE001A31EEE3
:102AB000211A22EE010A00BF00BF1F4D10352D68FC
:102AC000C5F3462501EE105AB8EE411AF7EE001A8A
:102AD00031EE211AC0EE011ABCEEE11A81ED001AA6
:102AE000154D10352D68C5F3064501EE105AB8EEA8
:102AF000411AF7EE001A31EE211AC0EE011ABCEEAF
:102B0000E11A81ED011A0C4D10352D68C5F30665EB
:102B100001EE105AB8EE411AF7EE001A31EE211A02
:102B2000C0EE011ABCEEE11A81ED021A03E00025A5
:102B30000D604D608D6070BD284402580090D00338
:102B4000000000460024744C0024744A20BCBE4B94
:102B500070B50146844D2D6805F00303824D2D6844
:102B6000C5F30550804D2D1D2D68C5F300247E4D05
:102B70001C352D68C5F3CC0515FB04F501EE105A84
:102B8000B8EE411AF0EE410A00286FD023B1012BB4
:102B90004ED0022B6BD16BE0734D283D2D68C5F3F1
:102BA00040153DB3704D283D2D68C5F3C1066F4DEE
:102BB00025FA06F201EE102AF8EE411A01EE100A8B
:102BC000B8EE411A81EE812A9FED691AC0EE811A92
:102BD000654D18352D68C5F3080501EE105AB8EE9D
:102BE000411A31EE811AF7EE001A31EE211A22EE67
:102BF000010A1CE001EE100AB8EE411ADFED5D1A81
:102C000081EE812A9FED5A1AC0EE811A564D183571
:102C10002D68C5F3080501EE105AB8EE411A31EEE1
:102C2000811AF7EE001A31EE211A22EE010A5BE05A
:102C300001EE100AB8EE411ADFED4F1A81EE812A3B
:102C40009FED4B1AC0EE811A474D18352D68C5F31C
:102C5000080501EE105AB8EE411A31EE811AF7EE6E
:102C6000001A31EE211A22EE010A3DE077E01DE064
:102C700001EE100AB8EE411A9FED402AC2EE011A89
:102C80009FED3B1A80EE812A374D18352D68C5F32C
:102C9000080501EE105AB8EE411A32EE011AB7EEED
:102CA000002A31EE021A21EE810A1DE001EE100A1F
:102CB000B8EE411ADFED301A81EE812A9FED2C1A11
:102CC000C0EE811A284D18352D68C5F3080501EEB0
:102CD000105AB8EE411A31EE811AF7EE001A31EEB1
:102CE000211A22EE010A00BF00BF1F4D18352D68C2
:102CF000C5F3462501EE105AB8EE411AF7EE001A58
:102D000031EE211AC0EE011ABCEEE11A81ED001A73
:102D1000154D18352D68C5F3064501EE105AB8EE6D
:102D2000411AF7EE001A31EE211AC0EE011ABCEE7C
:102D3000E11A81ED011A0C4D18352D68C5F30665B1
:102D400001EE105AB8EE411AF7EE001A31EE211AD0
:102D5000C0EE011ABCEEE11A81ED021A03E0002573
:102D60000D604D608D6070BD284402580090D00306
:102D7000000000460024744C0024744A20BCBE4B62
:102D80002DE9F04104460025A8464FF00062D4E941
:102D9000001011400020134659404040014331D1FA
:102DA000606E48B1B0F5801F0DD0B0F5001F11D096
:102DB000B0F5401F16D114E0FE48006840F4003022
:102DC000FC49086010E0022104F1080003F044FF10
:102DD000054609E0022104F1280003F0EFFF054653
:102DE00002E001E0012500BF00BF55B9F1482430E1
:102DF000006820F44010616E0843EE4924310860F9
:102E000000E0A8464FF48072D4E900101140002081
:102E100013465940404001432ED1A06D05281BD2D6
:102E2000DFE800F0030A11181900E248006840F4D6
:102E30000030E049086011E0002104F1080003F0CF
:102E40000BFF05460AE0002104F1280003F0B6FF5D
:102E5000054603E002E001E0012500BF00BF55B9CF
:102E6000D4482430006820F00700A16D0843D14900
:102E70002431086000E0A8464FF48062D4E90010D5
:102E80001140002013465940404001433DD1D4F841
:102E9000A400B0F5C00F24D007DC68B1B0F5001F66
:102EA00011D0B0F5800F1FD114E0B0F5000F19D08C
:102EB000B0F5200F18D116E0BE48006840F400308D
:102EC000BC49086012E0002104F1080003F0C4FED0
:102ED00005460BE0002104F1280003F06FFF0546D2
:102EE00004E003E002E001E0012500BF00BF5DB99E
:102EF000B0482C30006820F46000D4F8A4100843D7
:102F0000AC492C31086000E0A8464FF40062D4E9D7
:102F100000011040002113465840494008433DD16C
:102F2000D4F8A800B0F1407F24D007DC68B1B0F13C
:102F3000807F11D0B0F1007F1FD114E0B0F1806F1D
:102F400019D0B0F1A06F18D116E09A48006840F48B
:102F500000309849086012E0002104F1080003F0F5
:102F60007BFE05460BE0002104F1280003F026FF5C
:102F7000054604E003E002E001E0012500BF00BFD8
:102F80005DB98C482C30006820F0E060D4F8A810BF
:102F9000084388492C31086000E0A8464FF00073D0
:102FA000D4E900101940002059404040014328D185
:102FB000E06CA8B1102804D0202809D0302810D106
:102FC0000DE07C48006840F400307A4908600AE06F
:102FD000022104F1080003F03FFE054603E002E091
:102FE00001E0012500BF00BF55B9724820300068DC
:102FF00020F03000E16C08436E492031086000E0A9
:10300000A8464FF48053D4E90010194000205940DD
:103010004040014337D1E06DB0F5005F1AD004DCC9
:1030200050B1B0F5805F1ED10DE0B0F5405F18D013
:10303000B0F5804F17D115E05E48006840F40030CD
:103040005C49086011E0002104F1080003F004FE6F
:1030500005460AE0002104F1280003F0AFFE054612
:1030600003E002E001E0012500BF00BF55B951486F
:103070002430006820F4E040E16D08434D492431DC
:10308000086000E0A8464FF40053D4E9001019404E
:10309000002059404040014335D1206EB0F5403FFB
:1030A0001ED007DC68B1B0F5803F0BD0B0F5003F13
:1030B00019D10EE0B0F5802F13D0B0F5A02F12D1AA
:1030C00010E012E0012104F1080003F0C5FD0546FF
:1030D0000BE0012104F1280003F070FE054604E036
:1030E00003E002E001E0012500BF00BF55B931480F
:1030F0002430006820F4E020216E08432D4924315B
:10310000086000E0A8464FF48042D4E90001104076
:103110000021134658404940084337D1D4F8AC0049
:10312000B0F1405F1ED007DC68B1B0F1805F0BD01A
:10313000B0F1005F19D10EE0B0F1804F13D0B0F1C3
:10314000A04F12D110E012E0012104F1080003F0B9
:1031500083FD05460BE0012104F1280003F02EFE5B
:10316000054604E003E002E001E0012500BF00BFE6
:103170005DB910482C30006820F0E040D4F8AC1065
:1031800008430C492C31086000E0A8464FF4004386
:10319000D4E90001184000215840494008432AD191
:1031A000E06EB8B1B0F1805F06D0B0F1005F12D12F
:1031B00009E000002C440258F948006840F400304F
:1031C000F749086009E0012104F1080003F044FD1B
:1031D000054602E001E0012500BF00BF55B9F048F7
:1031E0002430006820F04050E16E0843EC4924315F
:1031F000086000E0A8464FF08073D4E90010194041
:10320000002059404040014328D1A06CA8B10128BA
:1032100004D0022809D0032810D10DE0E04800684E
:1032200040F40030DE4908600AE0022104F10800A1
:1032300003F012FD054603E002E001E0012500BFB6
:1032400000BF55B9D6482030006820F00300A16CBB
:103250000843D3492031086000E0A8464FF48003BA
:10326000D4E90010194000205940404001437DD16D
:10327000CC48006840F48070CA490860FFF782F8C3
:10328000064606E0FFF77EF8801B642801D9032577
:1032900005E0C448006800F480700028F2D000BF48
:1032A00085BBBF484430006800F44070B4F8B010EB
:1032B00001F44071884213D0B9484430006820F4CA
:1032C0004077B7484430006840F48030B449443116
:1032D00008600846006820F48030086008460760EF
:1032E000D4F8B000B0F5807F15D1FFF74BF8064653
:1032F00009E0FFF747F8801B41F28831884202D984
:10330000032507E038E0A64844300068C0F34000D9
:103310000028EED000BF55BB00BFB4F8B00000F4E9
:103320004070B0F5407F0ED19D481C38006820F4F5
:103330007C519D4AD4F8B000104041EA10109849E1
:103340001C39086007E096481C38006820F47C505F
:1033500093491C390860924844300068B4F8B010B2
:10336000C1F30B0108438E49443101E005E001E05F
:10337000086002E0A84600E0A8460122D4E9000166
:1033800010400021134658404940084330D1A06FF7
:1033900018281AD005DC48B1082808D0102817D101
:1033A0000CE0202812D0282812D110E012E00121D0
:1033B00004F1080003F050FC05460BE0012104F184
:1033C000280003F0FBFC054604E003E002E001E016
:1033D000012500BF00BF55B971482830006820F0B2
:1033E0003800A16F08436E492831086000E0A84604
:1033F0000223D4E900101940002059404040014305
:1034000029D1606F062816D2DFE800F003040B1202
:10341000131412E0012104F1080003F01DFC05461D
:103420000BE0012104F1280003F0C8FC054604E08C
:1034300003E002E001E0012500BF00BF55B9584894
:103440002830006820F00700616F08435449283194
:10345000086000E0A8460422D4E9001011400020D2
:1034600013465940404001432BD1D4F89000062820
:1034700016D2DFE800F003040B12131412E001214E
:1034800004F1080003F0E8FB05460BE0012104F11C
:10349000280003F093FC054604E003E002E001E0AD
:1034A000012500BF00BF5DB93D482C30006820F009
:1034B0000700D4F89010084339492C31086000E027
:1034C000A8462023D4E90001184000215840494073
:1034D000084337D1D4F88C00B0F1405F1ED007DC30
:1034E00068B1B0F1805F0BD0B0F1005F19D10EE090
:1034F000B0F1804F13D0B0F1A04F12D110E012E024
:10350000002104F1080003F0A7FB05460BE00221AF
:1035100004F1280003F052FC054604E003E002E059
:1035200001E0012500BF00BF5DB91D4828300068DB
:1035300020F0E040D4F88C10084319492831086085
:1035400000E0A8464023D4E900101940002059406B
:10355000404001433CD1D4F89800B0F5406F25D0ED
:1035600007DC68B1B0F5806F0BD0B0F5006F20D1EB
:103570000EE0B0F5805F1AD0B0F5A05F19D117E06A
:1035800019E0002104F1080003F066FB054612E093
:10359000022104F1280003F011FC05460BE00000B5
:1035A0002C44025800480258FFFCFF0F03E002E0E1
:1035B00001E0012500BF00BF4DB9FE48006820F4BE
:1035C000E050D4F898100843FA49086000E0A84693
:1035D0008023D4E9001019400020594040400143A5
:1035E00035D1D4F89C00B0F5C04F1ED007DC68B1CF
:1035F000B0F5005F0BD0B0F5804F19D10EE0B0F5FB
:10360000004F13D0B0F5204F12D110E012E000218E
:1036100004F1080003F020FB05460BE0022104F151
:10362000280003F0CBFB054604E003E002E001E0E4
:10363000012500BF00BF4DB9DE48006820F460409E
:10364000D4F89C100843DB49086000E0A846082332
:10365000D4E900011840002158404940084317D1DF
:10366000D4F88000B0F5805F07D1022104F1280072
:1036700003F0A4FB08B14FF00108CE48001F00681A
:1036800020F44050D4F880100843CA49091F08604C
:103690001023D4E900011840002158404940084354
:1036A00015D1D4F89400B0F5807F07D1022104F140
:1036B000280003F083FB08B14FF00108BD48006803
:1036C00020F44070D4F894100843BA4908604FF4CD
:1036D0000023D4E900011840002158404940084324
:1036E00027D1D4F8A00030B1B0F5803F0AD0B0F5B2
:1036F000003F0FD10DE0002104F1080003F0ACFA07
:10370000054609E0022104F1280003F057FB0546B5
:1037100002E001E0012500BF00BF4DB9A5480068E7
:1037200020F44030D4F8A0100843A249086000E01B
:10373000A8464FF48023D4E90001184000215840E6
:10374000494008432DD1D4F88400B0F5801F06D03D
:10375000B0F5001F0CD0B0F5401F11D10FE0954817
:103760002C38006840F4003092492C39086009E098
:10377000012104F1280003F021FB054602E001E0ED
:10378000012500BF00BF5DB98A48001F006820F412
:103790004010D4F8841008438649091F086000E0EF
:1037A000A8464FF48032D4E90001104000211346AE
:1037B00058404940084325D1206D18B1B0F5803FED
:1037C00010D108E07B482C38006840F4003079497B
:1037D0002C39086008E0022104F1080003F03CFAEB
:1037E000054601E0012500BF00BF55B971480C38FE
:1037F000006820F48030216D08436E490C39086060
:1038000000E0A8464FF00053D4E900101940002012
:1038100059404040014307D1022104F1280003F040
:10382000CDFA08B14FF001084FF40032D4E900019D
:1038300010400021134658404940084327D1E06F0B
:10384000A0B1B0F5807F06D0B0F5007F0CD0B0F508
:10385000407F0CD109E057482C38006840F4003014
:1038600054492C39086004E003E002E001E001253E
:1038700000BF00BF55B94F48001F006820F44070DA
:10388000E16F08434B49091F086000E0A8464FF468
:103890008012D4E9001011400020134659404040E6
:1038A000014309D143480838006820F00040216FE7
:1038B00008434049083908604FF40013D4E9000177
:1038C0001840002158404940084309D13948083878
:1038D000006820F08070A16E0843364908390860FE
:1038E0004FF08043D4E90010194000205940404077
:1038F000014311D100BF2F484838006820F4004030
:103900002C494839086008460068D4F8B4100843C8
:1039100028494839086000BF4FF00042D4E900014F
:1039200010400021134658404940084309D121481E
:103930000C38006820F04050616D08431D490C3977
:1039400008604FF40002D4E9001011400020134633
:103950005940404001430AD11648001F006820F436
:103960004000D4F8881008431249091F086001225A
:1039700000216068104049405040014306D104F1E5
:10398000080003F069F9054605B1A84602220021A6
:103990006068104049405040014307D1012104F1C3
:1039A000080003F059F9054605B1A8460423002094
:1039B000616801E0584402581940042240405140D7
:1039C000084307D1022104F1080003F045F9054638
:1039D00005B1A8460823002061681940082240402C
:1039E0005140084307D1002104F1280003F0E6F913
:1039F000054605B1A8461023002061681940102231
:103A000040405140084307D1012104F1280003F050
:103A1000D5F9054605B1A84620220021606810406E
:103A200049405040014307D1022104F1280003F02E
:103A3000C5F9054605B1A846B8F1000F02D100202E
:103A4000BDE8F0810120FBE72DE9F04104460D4679
:103A500014B90120BDE8F081BD48006800F00F00F6
:103A6000A8420ED2BA48006820F00F002843B84997
:103A700008600846006800F00F00A84201D001204D
:103A8000E8E7207800F0040004280ED1B14920694D
:103A9000096801F07001884207D9AE48006820F03B
:103AA000700021690843AB490860207800F00800E5
:103AB000082811D1A749091D6069096801F0700142
:103AC000884209D9A348001D006820F07000616990
:103AD0000843A049091D0860207800F01000102854
:103AE00011D19C49091DA069096801F4E06188426F
:103AF00009D99848001D006820F4E060A1690843D6
:103B00009449091D0860207800F02000202811D178
:103B100090490831E069096801F07001884209D9CB
:103B20008C480830006820F07000E169084389493A
:103B300008310860207800F0020002280ED1854983
:103B4000E068096801F00F01884207D981480068E0
:103B500020F00F00E16808437E490860207800F0FB
:103B60000100002850D07B48006820F47060A168F4
:103B70000843784908606068022807D175481838FA
:103B80000068C0F34040F8B9012063E7606803288B
:103B900007D1704818380068C0F34060A0B9012010
:103BA00058E76068012807D16A4818380068C0F3F0
:103BB000002048B901204DE7664818380068C0F376
:103BC000800008B9012045E762480838006820F005
:103BD0000700616808435F4908390860FEF7D2FBB7
:103BE000064608E0FEF7CEFB801B41F28831884292
:103BF00001D903202EE757480838006800F0380044
:103C00006168B0EBC10FEDD1207800F0020002280E
:103C10000ED15049E068096801F00F01884207D2CF
:103C20004C48006820F00F00E168084349490860EB
:103C30004748006800F00F00A8420ED944480068C9
:103C400020F00F002843424908600846006800F051
:103C50000F00A84201D00120FCE6207800F004000B
:103C600004280ED13B492069096801F0700188429F
:103C700007D23848006820F07000216908433549B0
:103C80000860207800F00800082811D13149091D8A
:103C90006069096801F07001884209D22D48001D51
:103CA000006820F07000616908432A49091D086016
:103CB000207800F01000102811D12649091DA069B4
:103CC000096801F4E061884209D22248001D0068B9
:103CD00020F4E060A16908431E49091D08602078AE
:103CE00000F02000202811D11A490831E069096844
:103CF00001F07001884209D216480830006820F0AF
:103D00007000E169084313490831086000F0ACF81D
:103D100010490968C1F303210F4A515C01F01F01EA
:103D200020FA01F70B48006800F00F001146085C0C
:103D300000F01F0027FA00F00849086008480760F3
:103D400008480068FEF784FC8046404682E6000092
:103D5000002000521844025880A4000814000024D7
:103D600010000024080000243F220260174A126855
:103D700002F007024260154A0832126802F47062CB
:103D80008260124A0832126802F00F02C2600F4AC3
:103D90000832126802F0700202610C4A0C3212689A
:103DA00002F070024261094A0C32126802F4E062C9
:103DB0008261064A1032126802F07002C261044A3F
:103DC000126802F00F020A607047000010440258A7
:103DD0000020005210B500F047F80D490968C1F302
:103DE00003210C4A515C01F01F0120FA01F408483C
:103DF000006800F00F001146085C00F01F0024FA74
:103E000000F005490860054804600846006810BDD8
:103E10001844025880A40008140000241000002454
:103E200000B5FFF7D7FF05490968C1F30211044A3D
:103E3000515C01F01F01C84000BD00001C44025845
:103E400080A4000800B5FFF7C5FF05490968C1F364
:103E50000221044A515C01F01F01C84000BD00006E
:103E60001C44025880A40008F0B5824E366806F063
:103E7000380636B1082E15D0102E15D0182E7DD14B
:103E800014E07C4E103E3668C6F3401646B1794EBB
:103E9000103E3668C6F3C107774E26FA07F000E0F9
:103EA0007548E5E07548E3E07548E1E0714E183685
:103EB000366806F003046F4E18363668C6F30511EF
:103EC0006C4E1C36366806F001056A4E243636689C
:103ED000C6F3CC0616FB05F601EE106AB8EE410AF1
:103EE000002971D024B1012C50D0022C6DD16DE08D
:103EF000604E103E3668C6F340163EB35D4E103E2F
:103F00003668C6F3C1075C4E26FA07F301EE103A95
:103F1000F8EE411A01EE101AB8EE411A81EE812A2C
:103F20009FED581AC0EE011A524E20363668C6F37D
:103F3000080601EE106AB8EE411A31EE811AF7EE6A
:103F4000001A31EE211A62EE010A1EE001EE101A8B
:103F5000B8EE411ADFED4C1A81EE812A9FED491A25
:103F6000C0EE011A434E20363668C6F3080601EE4D
:103F7000106AB8EE411A31EE811A00E076E0F7EEF1
:103F8000001A31EE211A62EE010A5BE001EE101A0E
:103F9000B8EE411A9FED3D2AC2EE011A9FED391A83
:103FA00080EE012A334E20363668C6F3080601EE4D
:103FB000106AB8EE411A32EE011AB7EE002A31EE5D
:103FC000021A61EE810A3DE04EE01DE001EE101A9A
:103FD000B8EE411ADFED2E1A81EE812A9FED291AE3
:103FE000C0EE011A234E20363668C6F3080601EEED
:103FF000106AB8EE411A31EE811AF7EE001A31EE6E
:10400000211A62EE010A1DE001EE101AB8EE411A03
:104010009FED1E2AC2EE011A9FED1A1A80EE012AA8
:10402000144E20363668C6F3080601EE106AB8EE64
:10403000411A32EE011AB7EE002A31EE021A61EE91
:10404000810A00BF00BF0B4E20363668C6F34626F5
:10405000721C01EE102AB8EE411AC0EE811ABCEEB5
:10406000E11A11EE100A00E0002001E0034800BF51
:1040700000BFF0BD104402580090D00300093D007D
:1040800040787D01000000460024744C0024744AEE
:1040900020BCBE4B2DE9F047044614B90120BDE811
:1040A000F087207800F00100002870D0F9480068FF
:1040B00000F03808F7481830D0F80090B8F1100F29
:1040C00006D0B8F1180F0FD109F0030002280BD168
:1040D000F04810380068C0F3404000286AD060689B
:1040E000002867D10120DAE700BF6068B0F5803FA3
:1040F00008D1E8481038006840F48030E5491039AC
:1041000008602EE0606868B9E2481038006820F462
:104110008030E049103908600846006820F48020AB
:1041200008601EE06068B0F5A02F0DD1D9481038A6
:10413000006840F48020D7491039086008460068BC
:1041400040F4803008600CE0D2481038006820F459
:104150008030D049103908600846006820F480207B
:10416000086000BF606898B1FEF70CF9054606E0EC
:10417000FEF708F9401B642801D903208FE7C548E2
:1041800010380068C0F340400028F1D012E012E07F
:10419000FEF7F8F8054606E0FEF7F4F8401B642841
:1041A00001D903207BE7BB4810380068C0F34040CA
:1041B0000028F1D100BF207800F00200022879D158
:1041C000B448006800F03808B2481830D0F80090C1
:1041D000B8F1000F05D0B8F1180F35D109F0030080
:1041E00088BBAC4810380068C0F3800018B1E068A4
:1041F00008B9012053E7A7481038006820F01900DB
:10420000E1680843A34910390860FEF7BBF805468A
:1042100006E0FEF7B7F8401B022801D903203EE76D
:104220009C4810380068C0F380000028F1D09948FD
:104230000C38006820F0FE40217C40EA016095497E
:104240000C39086045E0FFE7E06838B39148103862
:10425000006820F01900E16808438E4910390860B1
:10426000FEF790F8054606E0FEF78CF8401B0228A2
:1042700001D9032013E7874810380068C0F3800095
:104280000028F1D083480C38006820F0FE40217CE3
:1042900040EA01607F490C3908601AE07D48103817
:1042A000006820F001007B4910390860FEF76AF8C9
:1042B000054607E00EE0FEF765F8401B022801D92D
:1042C0000320ECE6734810380068C0F38000002833
:1042D000F1D100BF207800F0100010286FD16D4898
:1042E000006800F038086B481830D0F80090B8F13A
:1042F000080F06D0B8F1180F1CD109F003000128EF
:1043000018D1644810380068C0F3002020B1E0697B
:10431000802801D00120C2E600BF5E48001F00686F
:1043200020F07C5094F8201040EA01605949091FA0
:10433000086043E0E06938B356481038006840F040
:104340008000544910390860FEF71CF8054606E065
:10435000FEF718F8401B022801D903209FE64D48BC
:1043600010380068C0F300200028F1D000BF494891
:10437000001F006820F07C5094F8201040EA016093
:104380004449091F086019E042481038006820F0CD
:104390008000404910390860FDF7F4FF054606E04B
:1043A000FDF7F0FF401B022801D9032077E63948CA
:1043B00010380068C0F300200028F1D100BF207839
:1043C00000F00800082836D16069D0B13148643067
:1043D000006840F001002F4964310860FDF7D2FF0A
:1043E000054606E0FDF7CEFF401B022801D9032059
:1043F00055E6284864300068C0F340000028F1D03A
:1044000019E024486430006820F00100214964313B
:104410000860FDF7B7FF054606E0FDF7B3FF401B58
:10442000022801D903203AE61A4864300068C0F334
:1044300040000028F1D1207800F02000202838D159
:10444000A069D0B113481038006840F48050114979
:1044500010390860FDF796FF054606E0FDF792FF6C
:10446000401B022801D9032019E60A4810380068C9
:10447000C0F340300028F1D01BE006481038006837
:1044800020F48050034910390860FDF77BFF054692
:1044900009E0000010440258FDF774FF401B022899
:1044A00001D90320FBE5D0480068C0F34030002864
:1044B000F2D1207800F0040004287DD1CB480068B8
:1044C00040F48070C9490860FDF75CFF054606E0CE
:1044D000FDF758FF401B642801D90320DFE5C348DE
:1044E000006800F480700028F2D000BFA0680128A6
:1044F00008D1BD487030006840F00100BA49703101
:1045000008602DE0A06868B9B7487030006820F0F6
:104510000100B549703108600846006820F00400C9
:1045200008601DE0A06805280DD1AF487030006814
:1045300040F00400AC49703108600846006840F063
:10454000010008600CE0A8487030006820F001000D
:10455000A549703108600846006820F00400086032
:1045600000BFA068A0B1FDF70DFF054608E0FDF70C
:1045700009FF401B41F28831884201D903208EE5B2
:10458000994870300068C0F340000028EFD013E075
:10459000FDF7F8FE054608E0FDF7F4FE401B41F28A
:1045A0008831884201D9032079E58F48703000684E
:1045B000C0F340000028EFD1606A00287DD08A480F
:1045C0001030006800F03800182877D0606A0228A0
:1045D00075D18548006820F0807083490860FDF738
:1045E000D1FE054606E0FDF7CDFE401B022801D9AD
:1045F000032054E57C480068C0F340600028F2D1F5
:1046000000BFD4E90A1041EA00107749283109684F
:1046100040F2F33291430843734928310860208EF9
:10462000401EC0F30800616B491E4FF47E4202EA4F
:1046300041210843218F491ED20102EA014108436A
:104640003C21095D491E120202EA016108436649E4
:104650003031086000BF081F006820F00100091F0A
:1046600008606148343000684FF6F8718843A16CE7
:1046700040EAC1005C49343108605B482C30006876
:1046800020F00C00216C084357492C310860084683
:10469000006820F00200616C084353492C31086027
:1046A0000846006840F4803008600846006840F41E
:1046B000003008600846006802E092E038E01FE041
:1046C00040F4802008600846006840F0010008605F
:1046D0004548006840F0807043490860FDF752FE8D
:1046E000054606E0FDF74EFE401B022801D90320D7
:1046F000D5E43D480068C0F340600028F2D070E087
:104700003948006820F0807037490860FDF73AFEAC
:10471000054606E0FDF736FE401B022801D90320BE
:10472000BDE431480068C0F340600028F2D158E091
:104730002D48283007682C4830300668606A012808
:1047400021D007F00301A06A81421CD1C7F30511F3
:10475000E06A884217D1C6F30801206B401E8142EF
:1047600011D1606B401EC6F3462188420BD1A06B6D
:10477000401EC6F30641884205D1E06B401EC6F3D9
:104780000661884201D0012089E41748343000686E
:10479000C0F3CC07A06CB84223D013482C3000687B
:1047A00020F0010010492C310860FDF7EBFD0546B3
:1047B00000BFFDF7E7FD401BFBD00B48343000681D
:1047C0004FF6F8718843A16C40EAC10006493431C4
:1047D000086005482C30006840F0010002492C3187
:1047E000086000205BE400000044025800480258C2
:1047F00070B504460CB9012070BD606A00B900BFF5
:104800000021A1626349206888420CD06249206877
:10481000884208D061492068884204D0E0680F28A7
:1048200001D90120E8E7204602F07AFB0546594904
:104830002068884209D058492068884205D05749E5
:104840002068884201D0082D0DD85249206888423E
:1048500007D051492068884203D0504920688842D7
:1048600003D1102D01D90120C6E794F8810028B9A1
:10487000002084F88000204600F092F8022084F89E
:1048800081002068006820F001002168086020682D
:10489000806800F4F816A069B0F1806F11D16068EB
:1048A000B0F5800F01D1A06B28B1606848B9A06B4A
:1048B000B0F1805F05D12068006840F48050216825
:1048C0000860606800F48000B0F5800F0BD1E068EC
:1048D000072808D32068006820F48070216D084301
:1048E0002168086005E02068006820F48070216875
:1048F0000860A16AE06908433043E16B0843E1685E
:10490000084321688860616A606B0843A16B0843B3
:10491000A16908432169084361690843216A084382
:1049200061680843E16C0843A1680843A16C08432F
:10493000A16D08432168C860606878B92068806804
:1049400020F4C05040F400602168886020688068CE
:1049500020F4C06040F48060216888602068006DA9
:1049600020F0010021680865606800F48000B0F55F
:10497000800F07D12068C06820F00040616D0843B7
:104980002168C8600020C4F88400012084F88100F8
:10499000002031E70030014000380040003C00407A
:1049A00010B5B6B00446142130A8FBF70FFEB821AD
:1049B00002A8FBF70BFE3C492068884236D18114DF
:1049C0000020CDE90210199002A8FEF7D9F908B12C
:1049D000FBF777FE00BF3548006840F4805033494C
:1049E00008600846006800F48050019000BF00BFD6
:1049F00000BF2E481038006840F001002B491039E4
:104A000008600846006800F00100019000BF00BF88
:104A1000F020309002203190002032903390052019
:104A2000349030A92248FDF7A5FB3AE021492068DF
:104A3000884236D141140020CDE902101A9002A814
:104A4000FEF79EF908B1FBF73CFE00BF174800686F
:104A500040F40050154908600846006800F4005012
:104A6000019000BF00BF00BF10481038006840F040
:104A700010000E49103908600846006800F0100068
:104A8000019000BF00BF4FF4F04030900220319001
:104A90000020329033900520349030A90648FDF76D
:104AA00069FB36B010BD000000300140F0440258F0
:104AB000000002580034014000100258704770474F
:104AC0007047000030B502460B4600BF92F83C002C
:104AD000012801D1022030BD012082F83C0000BF36
:104AE000022082F83D001068416810688468254DF6
:104AF0001068A84203D0244D1068A84203D121F4C5
:104B000070015868014321F0700118680143106872
:104B100041601C4D1068A84223D01068B0F1804F4E
:104B20001FD01A4D1068A8421BD0194D1068A8421A
:104B300017D0184D1068A84213D0134D1068A84222
:104B40000FD0154D1068A8420BD0144D1068A84224
:104B500007D0134D1068A84203D0124D1068A84228
:104B600005D124F080049868044310688460012013
:104B700082F83D0000BF002082F83C0000BF00BF6B
:104B8000A9E70000000001400004014000040040CB
:104B900000080040000C00400018004000400140A8
:104BA00000E0004000E4004010B504460CB90120CC
:104BB00010BD94F83D0028B9002084F83C00204640
:104BC00000F02AF8022084F83D00211D206802F040
:104BD0009DFA012084F8480000BF84F83E000121BE
:104BE0003F200155402001554120015542200155EB
:104BF0004320015500BF00BF012084F84400452038
:104C00000155462001554720015500BF012084F879
:104C10003D000020CCE7000038B504461A49206862
:104C2000884216D100BF1948006840F010001749AB
:104C300008600846006800F01000009000BF00BF48
:104C4000002211463620FDF7D7FD3620FDF7C0FDC6
:104C500019E00F492068884215D100BF0B48006851
:104C600040F02000094908600846006800F0200074
:104C7000009000BF00BF002211463720FDF7BCFDA9
:104C80003720FDF7A5FD38BD00100040E84402586C
:104C900000140040014691F83D00012801D0012098
:104CA0007047022081F83D000868C06840F00100AC
:104CB0000B68D860204B0868984223D00868B0F190
:104CC000804F1FD01D4B086898421BD01C4B0868B2
:104CD000984217D01B4B0868984213D01A4B0868AB
:104CE00098420FD0194B086898420BD0184B0868AF
:104CF000984207D0174B0868984203D0164B0868B3
:104D0000984210D108688068144B00EA0302062A12
:104D10000FD0B2F5803F0CD00868006840F0010069
:104D20000B68186005E00868006840F001000B6837
:104D300018600020B4E700000000014000040040BB
:104D400000080040000C0040000401400018004032
:104D50000040014000E0004000E400400700010086
:104D6000704770B504462068C6682068056905F07C
:104D70000200022819D106F00200022815D1401FB6
:104D800021680861012020772068806900F0030015
:104D900018B12046FFF7E4FF05E0204600F01CF9BB
:104DA000204600F033FA0020207705F004000428A4
:104DB00019D106F00400042815D1C0432168086108
:104DC000022020772068806900F4407018B12046E6
:104DD000FFF7C6FF05E0204600F0FEF8204600F091
:104DE00015FA0020207705F00800082819D106F0F0
:104DF0000800082815D1C0432168086104202077E5
:104E00002068C06900F0030018B12046FFF7A8FF32
:104E100005E0204600F0E0F8204600F0F7F9002019
:104E2000207705F01000102819D106F01000102886
:104E300015D1C04321680861082020772068C06927
:104E400000F4407018B12046FFF78AFF05E02046C5
:104E500000F0C2F8204600F0D9F90020207705F0D4
:104E6000010048B106F0010030B16FF00100216887
:104E70000861204600F08AFA05F08000802804D0FE
:104E800005F40050B0F5005F0AD106F080008028DC
:104E900006D16FF40250216808612046FFF70FFE2B
:104EA00005F48070B0F5807F0AD106F0800080287C
:104EB00006D16FF48070216808612046FFF7FEFD7F
:104EC00005F04000402809D106F04000402805D1F7
:104ED000C04321680861204600F0BEFA05F02000BA
:104EE000202809D106F02000202805D1C0432168E0
:104EF00008612046FFF7E4FD70BD000010B586B0E4
:104F00000446142101A8FBF761FB2068B0F1804F33
:104F100036D100BF2B48006840F0010029490860E5
:104F20000846006800F00100009000BF00BF00BF0D
:104F30000846006840F0020008600846006800F07B
:104F40000200009000BF00BF0320019002200290E9
:104F50000020039004900120059001A91A48FDF754
:104F600009F94FF440600190022002900020039064
:104F700004900120059001A91448FDF7FBF81FE0FB
:104F80001349206888421BD100BF0E48006840F0DA
:104F900004000C4908600846006800F00400009016
:104FA00000BF00BF4FF470700190022002900020FB
:104FB000039004900220059001A90648FDF7DAF855
:104FC00006B010BDE0440258000002580004025828
:104FD000000400400008025870472DE9F0410446E3
:104FE0000D461646002700BF94F83C00012802D168
:104FF0000220BDE8F081012084F83C0000BF0C2EA7
:1050000051D005DC4EB1042E1ED0082E7AD133E0EB
:10501000102E60D0142EF9D175E02946206802F0D8
:10502000FFF82068806940F00800216888612068E6
:10503000806920F0040021688861206880692969FE
:1050400008432168886178E02946206802F03EF92B
:105050002068806940F40060216888612068806968
:1050600020F480602168886120688069296940EAAD
:1050700001202168886160E02946206802F080F9FB
:105080002068C06940F008002168C8612068C069D4
:1050900020F004002168C8612068C06929690843BC
:1050A0002168C86149E02946206802F0C3F92068F8
:1050B000C06940F400602168C8612068C06920F4BC
:1050C00080602168C8612068C069296940EA0120C0
:1050D0002168C86131E02946206802F0E5F92068BE
:1050E000406D40F00800216848652068406D20F060
:1050F0000400216848652068406D296908432168DB
:1051000048651AE017E02946206802F005FA206891
:10511000406D40F40060216848652068406D20F4CF
:105120008060216848652068406D296940EA012057
:105130002168486501E0012700BF00BF00BF0020D3
:1051400084F83C0000BF384653E710B504460CB95C
:10515000012010BD94F83D0028B9002084F83C00DF
:10516000204600F029F8022084F83D00211D206827
:1051700001F0CCFF012084F8480000BF84F83E0015
:1051800001213F2001554020015541200155422079
:1051900001554320015500BF00BF012084F84400A1
:1051A00045200155462001554720015500BF0120EB
:1051B00084F83D000020CCE708B50168B1F1804FCC
:1051C0000DD100BF0F49096841F001010D4A11607E
:1051D0001146096801F00101009100BF11E00A4A7F
:1051E000016891420DD100BF0649096841F00201F2
:1051F000044A11601146096801F00201009100BFE4
:1052000000BF08BDE8440258000400407047000099
:1052100070B504460D4615B994F83E0015E0042D0E
:1052200002D13F20005D10E0082D02D14020005D3A
:105230000BE00C2D02D14120005D06E0102D02D1C3
:105240004220005D01E04320005D012801D00120E3
:1052500070BD1DB9022084F83E001AE0042D03D170
:1052600002213F20015514E0082D03D102214020E6
:1052700001550EE00C2D03D102214120015508E01B
:10528000102D03D102214220015502E002214320CA
:10529000015501222946206801F0B0FF2F492068FE
:1052A00088420FD02E49206888420BD02D492068B3
:1052B000884207D02C492068884203D02B492068B7
:1052C000884201D1012000E0002028B12068406C14
:1052D00040F400402168486420492068884223D077
:1052E0002068B0F1804F1FD02149206888421BD030
:1052F00020492068884217D01F492068884213D06F
:105300001749206888420FD01C49206888420BD07A
:1053100014492068884207D019492068884203D080
:1053200018492068884210D120688068164900EA30
:105330000106062E0FD0B6F5803F0CD0206800681D
:1053400040F001002168086005E02068006840F036
:1053500001002168086000207AE700000000014099
:105360000004014000400140004401400048014069
:105370000004004000080040000C004000180040FD
:1053800000E0004000E40040070001001CB50446B6
:1053900027492068884201D1FDF71EF92549206878
:1053A000884227D1244840684EF65F21884203D1C5
:1053B00000202149486004E01F484068401C1E4905
:1053C000486003F05FFD01F0BBF803F0E3FD00204F
:1053D000009001901948B0F9101000231A4618489F
:1053E00003F0DCFB1749164803F0F2F9164914489C
:1053F00003F058FC15492068884217D114480078FA
:10540000401C134908700846007864280AD110210E
:105410001048FCF7A7FF20210E48FCF7A3FF00204F
:105420000B49087004F0E8F804F056FF1CBD0000BA
:105430000000014000100040AC350024401300245F
:105440006C000024A4150024EC3200240014004059
:1054500062000024000802587047014600BF91F81E
:105460008400012801D102207047012081F88400C6
:1054700000BF2420C1F88800086802680868006836
:1054800020F001000B68186022F0005200204866EE
:10549000086802602020C1F8880000BF002081F861
:1054A000840000BF00BFDFE77047704770B5044657
:1054B0000D4600BF94F88400012801D1022070BD80
:1054C000012084F8840000BF2420C4F888002068EC
:1054D00006682068006820F00100216808602068E4
:1054E000806820F06060284321688860204602F0D0
:1054F0004BF8206806602020C4F8880000BF002018
:1055000084F8840000BF00BFD9E770B504460D469B
:1055100000BF94F88400012801D1022070BD012051
:1055200084F8840000BF2420C4F88800206806683E
:105530002068006820F00100216808602068806809
:1055400020F06040284321688860204602F01CF863
:10555000206806602020C4F8880000BF002084F87E
:10556000840000BF00BFD9E7704770477047000054
:105570002DE9F04704462068C56920680668206860
:10558000876840F60F0005EA0009B9F1000F0FD156
:1055900005F0200060B106F0200010B907F080503F
:1055A00030B1606F10B12046616F8847BDE8F08769
:1055B000B9F1000F7ED0FE48384018B9FD483040A0
:1055C0000028F7D005F0010058B106F4807040B112
:1055D000012021680862D4F8900040F00100C4F86E
:1055E000900005F0020058B107F0010040B1022020
:1055F00021680862D4F8900040F00400C4F89000DC
:1056000005F0040058B107F0010040B10420216802
:105610000862D4F8900040F00200C4F8900005F051
:10562000080070B106F0200010B9E148384040B1E0
:10563000082021680862D4F8900040F00800C4F8FF
:10564000900005F4006060B106F0806048B14FF44E
:10565000006021680862D4F8900040F02000C4F88F
:105660009000D4F89000002852D005F0200050B1EE
:1056700006F0200010B907F0805020B1606F10B123
:105680002046616F8847D4F890A02068806800F0B9
:105690004000402802D00AF0280070B3204602F0F3
:1056A0009DF82068806800F04000402826D100BFA7
:1056B00000BF00E02DE02168083151E8001F21F013
:1056C00040002168083141E80002002AF1D100BF02
:1056D000D4F8800068B1B848D4F880100865D4F8D0
:1056E0008000FBF707FC98B1D4F88000016D884773
:1056F0000EE02046FFF73AFF0AE003E02046FFF7FE
:1057000035FF05E02046FFF731FF0020C4F8900088
:105710004CE7E06E01287DD105F01000002879D01B
:1057200006F010000028FAD01020216808622068D6
:10573000806800F0400040286DD1D4F880000068F7
:105740009E4988426BD0D4F8800000689B4918318C
:10575000884264D0D4F8800000689849303188428B
:105760005DD0D4F88000006894494831884256D012
:10577000D4F8800000689149603188424FD0D4F855
:10578000800000688D497831884248D0D4F8800084
:1057900000688A499031884241D0D4F8800000687E
:1057A0008649A83188423AD0D4F8800000688449FC
:1057B000884234D0D4F8800000688149183188428A
:1057C0002DD0D4F8800000687D493031884226D041
:1057D000D4F8800000687A49483188421FD0D4F854
:1057E0008000006876496031884218D0D4F8800083
:1057F000006873497831884211D0D4F8800000687D
:105800006F49903188420AD0D4F8800000686C4912
:10581000A83102E0AEE069E001E0884204D1D4F8AA
:1058200080000068406803E0D4F8800000684068A9
:105830001FFA80F8B8F1000F57D0B4F85C0040456B
:1058400053DDA4F85E80D4F88000C069B0F5807F95
:1058500040D000BF00BF216851E8001F21F48070D4
:10586000226842E800010029F5D100BF00BF00BF57
:105870002168083151E8001F21F00100216808313A
:1058800041E80002002AF3D100BF00BF00BF216839
:10589000083151E8001F21F040002168083141E83B
:1058A0000002002AF3D100BF2020C4F88C000020A1
:1058B000E06600BF00BF216851E8001F21F0100022
:1058C000226842E800010029F5D100BFD4F8800029
:1058D000FBF7A2F802202067B4F85C00B4F85E2061
:1058E000801A81B22046FFF7DFFD5FE634F85C0FD7
:1058F0006188401A1FFA80F860885C3CC8B3B8F130
:10590000000F36D000BF00BF216851E8001F21F40E
:105910009070226842E800010029F5D100BF00BF65
:1059200000BF2168083151E8001F214AD24301EA33
:1059300002002168083141E80002002AF1D100BFCD
:105940002020C4F88C000020E066606700BF00BF24
:10595000216851E8001F21F01000226842E8000190
:105960000029F5D100BF0220206741462046FFF7FD
:105970009BFD1BE605F4801050B107F4800038B1A0
:105980004FF48010216808622046FFF7EEFD0DE617
:1059900005F08000B0B106F0800010B907F40000F7
:1059A00080B1A06F10B12046A16F8847FEE50000CE
:1059B0000100001020010004C3770008100002401D
:1059C0001004024005F0400030B106F0400018B16C
:1059D000204601F039FFE9E505F4000030B106F09A
:1059E000804018B12046FFF7BFFDDFE505F080706D
:1059F00030B106F0004018B12046FFF756FDD5E55E
:105A000000BFD3E510B504460CB9012010BDA06954
:105A100000B100E000BFD4F8880028B9002084F865
:105A20008400204600F02AF82420C4F8880020686A
:105A3000006820F0010021680860A06A10B12046CB
:105A400001F0CEFD204602F015FA012800D1DDE775
:105A50002068406820F49040216848602068806891
:105A600020F02A00216888602068006840F001006A
:105A700021680860204601F02FFEC7E710B5B6B0D8
:105A80000446142130A8FAF7A1FDB82102A8FAF7BC
:105A90009DFD9049206888423FD101210020CDE939
:105AA0000210209002A8FDF76BF908B1FAF709FE81
:105AB00000BF8948006840F0100087490860084628
:105AC000006800F01000019000BF00BF00BF8248D6
:105AD0001038006840F002007F491039086008461D
